:020000040800F2
:100000000080002065600008455E0008475E00082B
:10001000495E00084B5E00084D5E000800000000CD
:100020000000000000000000000000004F5E00081B
:10003000515E000800000000535E0008555E000895
:10004000B5600008B5600008B5600008B56000083C
:10005000B5600008B5600008B5600008B56000082C
:10006000B5600008B5600008B5600008B56000081C
:10007000B5600008B5600008B5600008B56000080C
:10008000B5600008B5600008B5600008B5600008FC
:10009000B5600008B5600008B5600008B5600008EC
:1000A000B5600008B5600008B5600008B5600008DC
:1000B000B5600008B5600008B5600008B5600008CC
:1000C000B5600008B5600008B5600008B5600008BC
:1000D000B5600008B5600008B5600008B5600008AC
:1000E000B5600008B5600008B5600008B56000089C
:1000F000B5600008B5600008B5600008B56000088C
:10010000000000000000000000000000B5600008D2
:10011000B5600008B5600008B5600008B56000086B
:10012000B5600008B5600008B5600008B56000085B
:10013000B5600008B5600008000000000000000085
:10014000B5600008B5600008B56000080000000058
:10015000000000000000000000000000000000009F
:100160000000000000000000B5600008B560000855
:10017000B560000800000000000000000000000062
:0801800000000000B56000085A
:1001C0000348044B834202D0034B03B118477047E6
:1001D000F0000020F0000020000000000548064963
:1001E0000B1AD90F01EBA301491002D0034B03B145
:1001F00018477047F0000020F000002000000000C9
:1002000010B5064C237843B9FFF7DAFF044B13B15E
:100210000448AFF300800123237010BDF0000020DC
:1002200000000000B860000808B5044B1BB1044989
:100230000448AFF30080BDE80840CFE700000000AD
:10024000F4000020B860000800B50B4C2568144687
:10025000EE681A4685B003460D464CB10749009535
:10026000CDE901143046064900F028F800F054FEAC
:1002700004490C46F3E700BF00000020C0620008FC
:10028000D06200085462000808B513460022FFF748
:10029000DBFF00BF014B1868704700BF0000002063
:1002A0000CB400B583B004AB53F8042B019300F0F9
:1002B00005F903B05DF804EB02B070470EB410B559
:1002C00083B005AB064C53F8042B0193014620681C
:1002D00000F0F4F803B0BDE8104003B0704700BF71
:1002E0000000002070B50D4E0D4D761BB61006D0E7
:1002F000002455F8043B01349847A642F9D1094E31
:10030000094D761B05F0D8FEB61006D0002455F82E
:10031000043B01349847A642F9D170BD88630008B8
:10032000886300088C63000888630008032A70B59E
:1003300015D940EA010C1CF0030F04460B4621D1ED
:10034000194620460E680568B54204F1040403F11D
:10035000040317D1043A032A20461946F0D8541E44
:10036000A2B100F1FF3C013901E0C3180CD01CF828
:1003700001EF11F8012F9645A4EB0C03F5D0AEEB7D
:10038000020070BD541EECE7184670BD104670BDEB
:10039000830730B548D0541E002A3FD0CAB2034666
:1003A00001E0013C3AD303F8012B9D07F9D1032C5E
:1003B0002DD9CDB245EA05250F2C45EA054536D99C
:1003C000A4F1100222F00F0C03F1200EE6444FEAD4
:1003D000121C03F1100242E9045542E902551032A1
:1003E0007245F8D10CF1010214F00C0F03EB02126C
:1003F00004F00F0C13D0ACF1040323F00303043317
:10040000134442F8045B9342FBD10CF003042CB17B
:10041000CAB21C4403F8012B9C42FBD130BD644698
:100420001346002CF4D1F9E703461446BFE71A46F9
:10043000A446E0E79368013B002B936011DA10B407
:100440009469A34209DB0A2907D01368581C10607D
:10045000197008465DF8044B70475DF8044B00F0D6
:1004600075BC1368581C106019700846704700BFAF
:100470009BB1F8B5134406460F46541E5D1E01E0BD
:10048000AC4208D014F8011F3A463046FFF7D2FFBD
:10049000431CF5D1F8BD0020F8BD0020704700BF17
:1004A000936810B5144613B95360184610BD00F098
:1004B0004BFF0023C4E9013310BD00BF2DE9F04F0D
:1004C00088469FB015461C46814618B18369002BAB
:1004D00000F0A280924B984500F0A480914B984583
:1004E00000F0B180904B984508BFD9F80C80B8F85F
:1004F0000C30180740F19D80D8F81030002B00F028
:10050000988000230B932978884E059420238DF83A
:10051000313030238DF832300127002974D02C4639
:100520000B4604E014F8013F002B00F08F80252BD0
:10053000F8D1B4EB050B40F08C802378002B63D00E
:1005400000234FF0FF32CDE90723069309938DF87E
:100550005B301C93013404E0069A07FA03F313435B
:1005600006932546052214F8011B304601F060F978
:10057000831B0028F0D1069BD90644BF20228DF8AA
:100580005B2029781A0744BF2B228DF85B202A298B
:1005900070D1059A1168043200290592C0F29B803F
:1005A0000991697801352E2976D0614C03222046C5
:1005B00001F03EF938B1069B001B402404FA00F01C
:1005C00003430693013515F8011B5A488DF8301086
:1005D000062201F02DF9002800F08380564B002BF5
:1005E0006DD005AA0092554B424606A94846AFF386
:1005F00000800390039B013306D00B9B039A29785C
:1006000013440B9300298AD1B8F80C305B0617D439
:100610000B981FB0BDE8F08F00F076FE404B984578
:100620007FF45CAFD9F80480B8F80C3018073FF5B8
:1006300063AF4146484600F0EDFB00283FF461AF50
:100640004FF0FF30E5E7D9F8088050E7B4EB050B31
:10065000DAD0AA46C5F1010503E0934536D91AF868
:10066000011F42464846FFF7E5FE013005EB0A024E
:10067000F3D1C9E7A1F13002092A94D8099B15F8F2
:10068000011F03EB830302EB4303A1F13002092AAC
:10069000F5D92E29099388D169782A292BD1059B70
:1006A000A9781A6807920433002A05F1020005931D
:1006B000B8BF4FF0FF330546B8BF079375E7059BFA
:1006C000073323F007030833059396E70B9A237843
:1006D0005A440B9232E7494243F0020309910693D0
:1006E0005FE705AA0092154B424606A9484600F06E
:1006F000CBF803907EE7A1F130020023092A07938B
:1007000005F101053FF651AF15F8011F03EB830317
:1007100002EB4303A1F13002092AF5D9079344E71C
:1007200014610008F4600008D46000080063000849
:10073000086300080C630008000000007104000852
:1007400010B4054C8446134620685DF8044B0A46F5
:100750006146FFF7B3BE00BF000000202DE9F84F4F
:1007600092461F460A698B68DDF828909A42B8BF06
:100770001A46CAF8002091F843300C46064613B1D9
:100780000132CAF80020226891065DD5DAF80030FF
:100790000233CAF80030226812F0060F11461ED14B
:1007A000E168CB1A002BD8BF114618DD04F1190BF4
:1007B0004FF0000805E0E568DAF80030ED1A45452D
:1007C0000CDD01235A4639463046C847013008F14E
:1007D0000108F0D14FF0FF30BDE8F88F216894F8A0
:1007E0004330003B18BF01238A060AD5E1185A1C82
:1007F000302081F84300224494F8451082F84310D9
:10080000023304F1430239463046C8470130E1D093
:10081000236803F00603042B1DD0A36822699342CA
:1008200025DD4FF000089B1A98441A34002501E09A
:1008300045451CDA0123224639463046C847013077
:1008400005F10105F4D1C5E712F0060F12D0003B07
:1008500018BF0123D5E7DAF80030E1682269C91A28
:10086000A368934221EAE178DDDC0029DDDC002089
:10087000BDE8F88FE168DAF80030CB1A002BD8BF5A
:10088000114693DCABE700BF2DE9F0470C4684B07E
:100890009046227E0C990746994604F14300002AAF
:1008A00033D0A2F15803DDB2202D67D8202B65D8B4
:1008B000DFE813F0DE00640064006400640064009C
:1008C00064006400640064006400A3006E006400BF
:1008D0006400640064006E006400640064006400EE
:1008E00021007F00C00064006400AE0064007F004F
:1008F00064006400E50023681A0640F104810B6877
:1009000062691D1D0D601B681A6000238246236109
:10091000CDF80090434603AA21463846FFF71EFF54
:10092000013020D02369524641463846C84701303D
:1009300019D02368E068039E9B0719D5831B002B01
:1009400016DD04F1190A002504E0E068039E831B0C
:10095000AB420DDD0123524641463846C8470130BF
:1009600005F10105F1D14FF0FF3004B0BDE8F0878B
:10097000B042B8BF304604B0BDE8F087012384F828
:100980004220236104F1420A002384F84330BFE788
:1009900023681A0602D45E0600F1C1800D682A6839
:1009A00004350D601546002A6BDBDFF884C10A268A
:1009B00010E023681D0640F19C800B681D1D0D6032
:1009C0001D68DFF86CC16F2A0CBF08260A260023B9
:1009D00084F843306268A260002A7FDB236823F03A
:1009E00004032360002D5BD1002A79D18246082EB2
:1009F00065D0A0EB0A0020618AE70B680122186825
:100A000004330B6004F1420A84F842002261BBE720
:100A10000B686268181D0860D3F800A000215046DA
:100A200000F006FF002800F08180A0EB0A00606063
:100A30002061A9E7236843F0200323607822DFF8D0
:100A4000F4C084F845200A68151D0D601D0643D4C6
:100A5000590641D51588DE0744BF43F020032360C3
:100A6000002D44D1236823F0200323601026AEE735
:100A7000582384F84530DFF8B8C02368E3E72368DB
:100A8000DCE76268A2602D21002AC5F1000584F828
:100A9000431002DB23F004032360DFF894C00A262E
:100AA0008246B5FBF6F306FB13512A461CF80110EB
:100AB0000AF8011DB2421D46F3D2082E99D12368CF
:100AC000D90796D5626823699A4292DC30230AF8E6
:100AD000013C0AF1FF3A8CE71568BCE7002DDFD135
:100AE0009CF8003084F8423004F1420A7FE7102677
:100AF0006DE713F0400F0B6803F104050D600CBFA8
:100B00001D681D885DE713F0400F0B68626903F1F3
:100B100004050D601B6814BF1A801A60F5E60A68A8
:100B2000B2F9005004320A602A463CE760687FE769
:100B3000146300082863000838B5124B1D68AA6BBF
:100B400004461AB10023C2E9044338BD182000F05E
:100B50005BFE0246A86378B101200021C2E90401CE
:100B6000094B0A480A499160C2E900030B239381AB
:100B70000023C2E9044338BD064B07484221FFF772
:100B800063FB00BF0000002034126DE60E33CDABD6
:100B9000ECDE05003C630008546300081C4B10B5F4
:100BA0001C68A26B8AB113691A4954691A4803FB7D
:100BB00001F100FB0411A3FB0030013341EB000104
:100BC000C2E9043121F0004010BD182000F01CFEE5
:100BD0000246A06388B1114C114B0E481149916037
:100BE0009FED097BC2E900430B2393810E4B014625
:100BF00082ED047BC2E9043110BD0C4B0C484E2140
:100C0000FFF722FBAFF300800100000000000000AE
:100C1000000000202DF451582D7F954C0E33CDABA4
:100C200034126DE6ECDE05002E7F954C3C63000827
:100C300054630008000000000000000000000000F5
:100C400090F800F06DE9024520F007016FF0000C0C
:100C500010F0070491F820F040F049804FF00004B4
:100C60006FF00700D1E9002391F840F000F108008F
:100C700082FA4CF2A4FA8CF283FA4CF3A2FA8CF3C7
:100C80004BBBD1E9022382FA4CF200F10800A4FA2E
:100C90008CF283FA4CF3A2FA8CF3E3B9D1E9042382
:100CA00082FA4CF200F10800A4FA8CF283FA4CF3B9
:100CB000A2FA8CF37BB9D1E9062301F1200182FA73
:100CC0004CF200F10800A4FA8CF283FA4CF3A2FA79
:100CD0008CF3002BC6D0002A04BF04301A4612BA87
:100CE000B2FA82F2FDE8024500EBD2007047D1E98A
:100CF000002304F00305C4F100004FEAC50514F019
:100D0000040F91F840F00CFA05F562EA05021CBFE9
:100D100063EA050362464FF00004A9E710B50A4BE9
:100D200084B0694604460022186800F0C9FC002817
:100D3000AEBFDDE900014FF0FF304FF0FF310CB1E5
:100D4000C4E9000104B010BD00000020F8B50D4654
:100D50001446064608B1836943B3254B9C422AD00A
:100D6000244B9C4229D0244B9C4208BFF468A389A1
:100D7000A269A2601A0722D5236903B322686169B8
:100D8000D31AEDB299422F4629DD0133A16801390A
:100D9000A160511C2160157062699A4216D0A38926
:100DA000DB0701D50A2D11D03846F8BD00F0ACFAAA
:100DB0000F4B9C42D4D17468D9E7B468D7E7214679
:100DC000304600F027F838B92369D7E72146304686
:100DD00000F034F90028E7D04FF0FF37E4E7214670
:100DE000304600F02BF90028F6D122680123CDE728
:100DF00014610008F4600008D460000810B4044CCA
:100E000003460A4620685DF8044B1946FFF79EBF6B
:100E1000000000203C4B70B51D6806460C460DB125
:100E2000AB69E3B1394B9C421FD0394B9C424DD04A
:100E3000384B9C4208BFEC68B4F90C3018079AB2E2
:100E400019D5216911B312F001002FD00020A06044
:100E500060694042A06100292ED0002070BD284664
:100E600000F052FA294B9C42DFD16C68B4F90C3087
:100E700018079AB2E5D4D1063ED5520728D4216985
:100E800043F00803A3819AB20029DCD102F4207058
:100E9000B0F5007FD7D02146304600F027FCB4F9EA
:100EA0000C3021699AB212F00100CFD1950758BFDA
:100EB0006069A0600029D0D1120658BF0846CDD580
:100EC00043F04003A3814FF0FF3070BDAC68B3E73F
:100ED000616B51B104F14402914204D0304600F0FC
:100EE0000DFEB4F90C300022626321690022C4E9CE
:100EF000001223F02403C3E7092243F040033260C9
:100F00004FF0FF30A38170BD000000201461000885
:100F1000F4600008D460000808B5062000F078FFEF
:100F2000012004F0A5FF00BF8B891A072DE9F041CD
:100F30000C4680463FD44A68002A58DDE66A002EF7
:100F400052D00022D8F80050C8F8002013F4805284
:100F500051D10123216A4046B047431C5ED0A3898A
:100F6000E66A5F0705D56368C01A636B0BB1236C33
:100F7000C01A216A024600234046B047411C3CD1BA
:100F8000D8F80030002B38D01D2B01D0162B4DD1B6
:100F900023690022C4E90032616BC8F8005019B31C
:100FA00004F14403994202D0404600F0A7FD00201E
:100FB0006063BDE8F0810E69B6B10D680E609A07F6
:100FC0000CBF4B690023AD1B8B600BE02B463246F8
:100FD000216AA76A4046B847B0F1000CA5EB0C05A2
:100FE000664413DD002DF1DC0020BDE8F0810A6CC1
:100FF000002AA3DCF8E7606DB3E700236360236990
:101000002360A389DB04C7D56065C5E7A38943F0E6
:1010100040034FF0FF30A381BDE8F081D8F80030E5
:10102000002B9CD01D2B06D0162B04D0A38943F097
:101030004003A381D9E7C8F80050D5E738B50B695C
:10104000BBB10D46044608B18369B3B10D4B9D4257
:1010500011D00D4B9D4213D00C4B9D4208BFE5684B
:10106000B5F90C302BB129462046BDE83840FFF7D2
:101070005BBF002038BD6568F2E700F045F9E5E7A1
:10108000A568EDE714610008F4600008D46000086A
:1010900038B540B303690446E3B1174B1D680DB181
:1010A000AB69CBB1154B9C420FD0154B9C4221D064
:1010B000144B9C4208BFEC68B4F90C3053B1214684
:1010C0002846BDE83840FFF72FBF6C68B4F90C30F4
:1010D000002BF4D1002038BD284600F015F9074B4D
:1010E0009C42E2D1F1E7084B08491868BDE8384056
:1010F00000F0C2BAAC68DFE700000020146100080D
:10110000F4600008D4600008D06000083D100008BA
:1011100000207047014900F0AFBA00BF3D10000841
:101120000020704770B568224D1E02FB05F50E4683
:1011300005F1740100F044FD044640B100210C307B
:10114000C4E90016A06005F16802FFF721F9204606
:1011500070BD00BF274B2DE9F0411E68B3690746FB
:1011600053B348364FF00408D6E90134013B04D5A7
:101170001EE05A1C04F168041AD0B4F90C50013B6B
:10118000002DF6D11C4B6566C4E90055C4E9025335
:10119000C4E90455A5610822294604F15C00FFF763
:1011A000F7F8C4E90D55C4E912552046BDE8F081B1
:1011B00035682DB12E46D7E7304600F01FF8D0E74E
:1011C0004FF4D671384600F0FBFC044668B1056068
:1011D000C0F804800C302946A06025464FF4D07238
:1011E000FFF7D6F834602E46BEE70C2330603B6034
:1011F000DBE700BFD06000080100FFFF2DE9F84FDA
:10120000344B35491A68816290424FF00003C0E9BF
:101210001233036504BF012383610546FFF79AFF7C
:1012200068602846FFF796FFA8602846FFF792FF00
:101230006F68E86000240423C7E9024308222146BE
:10124000C7E90044C7E904447C66BC6107F15C005F
:10125000FFF79EF8DFF88CB0AE68DFF88CA0DFF8FF
:101260008C90DFF88C801D4BC7F828A0C7E9087B5D
:10127000C7F82C90C7F830800822F360C6E9004414
:10128000C6E904447466B460B461214606F15C00AA
:10129000FFF77EF8C6E9086BC6E90AA9C6F83080F0
:1012A000EE680F4BF360C6E90044C6E90444746677
:1012B000B460B4612146082206F15C00FFF768F8CB
:1012C0000123C6E9086BC6E90B98C6F828A0AB61F4
:1012D000BDE8F88FD0600008151100080900010072
:1012E00012000200811F0008A91F0008E91F000862
:1012F00009200008024B0349186800F0BDB900BF7F
:10130000D06000083D100008836903B976E7704794
:10131000704700BF704700BF704700BF704700BFF5
:10132000024B0349186800F087B900BF0000002095
:1013300011110008024B0349186800F07DB900BF85
:1013400000000020211100089368002B00F0858028
:101350002DE9F04FB1F90C300C461907804683B0E7
:10136000174698B225D523691BB310F002033D68D8
:101370002DD04FF0000ADFF8BCB25646B9465E45A4
:101380003346524628BF5B464046002E52D0216A63
:10139000A76AB847002856DDD9F808301B1A8244DE
:1013A000361AC9F80830002BE9D1002003B0BDE897
:1013B000F08F21464046FFF72DFD002840F0368192
:1013C000B4F90C303D6898B210F00203D1D110F09E
:1013D000010944D14E46009746B38205D4F808B0BF
:1013E00040F18380B3455A4600F2B28010F4906F0A
:1013F00040F0BF8020680192494600F003FBA368DB
:10140000019AA3EB0B012368A1601344B246236049
:101410000026009B9868A0EB0A00D1449860002841
:10142000C3D0B4F90C0080B2002ED6D1D5E9009615
:101430000835D1E7D5E900A60835A0E721464046A2
:10144000FFF7FCFD80B3B4F90C3043F040034FF0DC
:10145000FF30A38103B0BDE8F08F002070471E4627
:10146000AA46994618461D46009756B388B34A4681
:10147000D4E904132068B24228BF3246884205D915
:10148000A16803EB010B5A4500F3A680934263DC8D
:10149000216AA76A2A464046B847B0F1000BD2DD60
:1014A000B9EB0B09CAD00120009A9368A3EB0B0398
:1014B0005D44A6EB0B069360002B3FF476AF002E45
:1014C000D4D10AF1080353E902569A460833002E94
:1014D000F9D032460A21284600F0AAF9002800F087
:1014E0009C800130A0EB0509C1E720682369984280
:1014F00016D86369B34213D86FF00042B24228BFD6
:101500003246216A92FBF3F2A76A02FB03F34046DC
:101510004A46B847B0F1000A95DDA6EB0A0678E71F
:10152000B345DA4628BFB2465246494600F06AFA49
:10153000A3682268A3EB0A035244A3602260002B35
:10154000EBD121464046FFF779FD0028E5D07AE748
:101550002068B34632464EE72946019200F052FA1F
:10156000019AA3689B1AA3602368134423609346DF
:1015700096E723682169A3EB010B636903EB430A38
:101580000AEBDA7A0BF101034FEA6A0A3344534556
:10159000524684BF9A46524643052CD511464046D2
:1015A00000F00EFB00283BD05A462169019000F064
:1015B0008FF9A289019B22F4906242F08002A281FD
:1015C00003EB0B002361AAEB0B03C4F814A0A36088
:1015D0002060B34632460EE729465A4600F012FA1A
:1015E00023685B44236021464046FFF727FD00281F
:1015F0003FF456AF27E7404600F03CFB0346002887
:10160000DED12169404600F079FAB4F90C300C22A1
:1016100023F08003C8F8002017E7721C914627E7E3
:101620000C22B4F90C30C8F800200EE74FF0FF3060
:10163000BCE600BF00FCFF7F2DE9F041884600F1C9
:1016400048070026D7E90154013D0FD4A389012B97
:1016500005F1FF3506D9B4F90E300133204601D02B
:10166000C04706436B1C04F16804EFD13F68002FAC
:10167000E8D13046BDE8F0812DE9F84307468846B9
:1016800000F148064FF00009D6E90154013D11D49C
:10169000A389012B05F1FF3508D9B4F90E300133C8
:1016A000214603D03846C04749EA00096B1C04F1C3
:1016B0006804EDD13668002EE6D14846BDE8F883CF
:1016C00070B50C46084D03460026204611461C46C0
:1016D0002E6000F027FD431C00D070BD2B68002B4E
:1016E000FBD0236070BD00BF14010020F0B58B89D2
:1016F0000C46990797B007D504F147030122C4E9C6
:101700000432236017B0F0BDB4F90E10002905466D
:101710002DDB6A4600F0A4FC002827DB019E06F4BE
:1017200070464FF48067A6F50056B6FA86F639463D
:101730002846760900F044FA30B3A3891A4AAA620F
:1017400043F08003C4E90407A3812060002ED9D0B0
:10175000B4F90E10284600F099FC0028D2D0A389D5
:1017600023F0030343F00103A381CBE7A38913F024
:10177000800F14BF40274FF4806739462846002663
:1017800000F01EFA0028D8D1B4F90C309A05B9D46B
:1017900023F0030304F1470243F002030121C4E9EB
:1017A0000421A3812260ADE71511000870B50C4635
:1017B000B1F90E10002996B016461D4613DB6A4695
:1017C00000F04EFC00280EDB019901F47041A1F5F8
:1017D0000051B1FA81F14FF480634909002029607A
:1017E000336016B070BDB4F90C3000221B062A60BD
:1017F00004D540230020336016B070BD4FF48063E1
:101800000020336016B070BD024B0146186800F02E
:10181000D7B900BF00000020024B0146186800F055
:101820006DB900BF000000200000000000000000B3
:1018300001F0FF01102A2BDB10F0070F08D010F881
:10184000013B013A8B422DD010F0070F42B3F6D185
:10185000F0B441EA012141EA014122F007047FF09E
:1018600000070023F0E80256083C85EA010586EAF5
:10187000010685FA47F5A3FA87F586FA47F6A5FA31
:1018800087F68EB9EED1F0BC01F0FF0102F007023D
:1018900032B110F8013B013A83EA010313B1F8D1E8
:1018A0000020704701387047002D06BF35460338C9
:1018B000073815F0010F07D1013015F4807F02BF02
:1018C000013015F4C03F0130F0BC0138704700BF53
:1018D000844641EA000313F003036DD1403A41D33B
:1018E00051F8043B40F8043B51F8043B40F8043BFA
:1018F00051F8043B40F8043B51F8043B40F8043BEA
:1019000051F8043B40F8043B51F8043B40F8043BD9
:1019100051F8043B40F8043B51F8043B40F8043BC9
:1019200051F8043B40F8043B51F8043B40F8043BB9
:1019300051F8043B40F8043B51F8043B40F8043BA9
:1019400051F8043B40F8043B51F8043B40F8043B99
:1019500051F8043B40F8043B51F8043B40F8043B89
:10196000403ABDD2303211D351F8043B40F8043B29
:1019700051F8043B40F8043B51F8043B40F8043B69
:1019800051F8043B40F8043B103AEDD20C3205D339
:1019900051F8043B40F8043B043AF9D2043208D031
:1019A000D2071CBF11F8013B00F8013B01D30B88A3
:1019B00003806046704700BF082A13D38B078DD081
:1019C00010F003038AD0C3F10403D21ADB071CBF53
:1019D00011F8013B00F8013B80D331F8023B20F8BD
:1019E000023B7BE7043AD9D3013A11F8013B00F8F6
:1019F000013BF9D20B7803704B7843708B7883707E
:101A00006046704788420DD98B1883420AD900EB93
:101A1000020CBAB1624613F801CD02F801CD994229
:101A2000F9D170470F2A0ED8034602F1FF3C4AB1A4
:101A30000CF1010C013B8C4411F8012B03F8012F30
:101A40006145F9D1704740EA01039B0750D1A2F1EB
:101A5000100370B501F1200C23F00F0501F1100EF9
:101A600000F11004AC441B095EF8105C44F8105CF3
:101A70005EF80C5C44F80C5C5EF8085C44F8085CAA
:101A80005EF8045C44F8045C0EF1100EE64504F1C7
:101A90001004E9D1013312F00C0F01EB031102F035
:101AA0000F0400EB031327D0043C24F003064FEA95
:101AB000940C1E441C1F8E465EF8045B44F8045FC1
:101AC000B442F9D10CF1010402F0030203EB8403E8
:101AD00001EB840102F1FF3C4AB10CF1010C013B26
:101AE0008C4411F8012B03F8012F6145F9D170BD29
:101AF00002F1FF3C03469BE72246EBE7002958D062
:101B000030B551F8043C83B0002BA1F10404B8BFF8
:101B1000E418019000F0E2FA284A0198136833B102
:101B2000A3420DD9216804EB010C63452FD06360FB
:101B3000146003B0BDE8304000F0D2BAA34210D820
:101B40001A465B68002BF9D1116802EB010C644561
:101B500019D02FD36360546003B0BDE8304000F06B
:101B6000BFBA116802EB010CA44516D022D8216837
:101B700004EB010C6345EDD11D685B682944C4E9A1
:101B800000135460D5E7236819441160D1E71D683C
:101B90005B682944C4E90013CAE724682144541847
:101BA000A3421160C5D1D3E900432144C2E9001327
:101BB000BFE770470C230360BBE700BF0C010020A8
:101BC000F8B5CD1C25F0030508350C2D38BF0C25C4
:101BD000002D064623DBA94221D8254F00F07EFACE
:101BE0003A6822B3144603E063682246FBB11C4600
:101BF00023685B1BF8D40B2B15D8636894420CBF89
:101C00003B605360304600F06BFA04F10B00231D7B
:101C100020F00700C21A01D01B1AA350F8BD0C23F4
:101C200033600020F8BD23601C442560EAE7796832
:101C3000C9B12946304600F045F8431C0CD0C41CFD
:101C400024F00304A04205D0211A304600F03AF8EF
:101C5000013001D02560D5E70C233046336000F019
:101C60003FFA0020F8BD304600F02CF87860E0E73D
:101C70000C010020F8B51446F9B1CAB106460D466C
:101C800000F030FAA04202D32F463846F8BD214674
:101C90003046FFF795FF07460028F6D02246294632
:101CA000FFF716FE30462946FFF728FF3846F8BDF5
:101CB0002746FFF723FF3846F8BDBDE8F840114638
:101CC000FFF77EBF38B5074D0022044608462A605C
:101CD00004F0FEF8431C00D038BD2B68002BFBD06D
:101CE000236038BD1401002038B5446C0CB10020CD
:101CF00038BD80210546FFF763FF0246686430B1B6
:101D0000031F7C3243F8044F9342FBD1EFE74FF0BF
:101D1000FF3038BD1F29F8B5054608D8466C0C467B
:101D200017464EB156F8240046F82470F8BD162325
:101D300003604FF0FF30F8BD8021FFF741FF0646FA
:101D4000686440B1031F00F17C05002143F8041FC3
:101D50009D42FBD1E6E74FF0FF30F8BD1F2938B5B3
:101D6000054620D8426C0C466AB152F8213053B176
:101D7000012B16D0591C10D00025204642F82450C3
:101D80009847284638BD284600F0F8F82246014614
:101D90002846BDE8384000F0DBB816230360012078
:101DA00038BD002038BD162303604FF0FF3038BD2A
:101DB0001F292AD8426C38B50C46054682B152F824
:101DC000243002EB84024BB1591C19D0012B15D0E1
:101DD0000025204615609847284638BD012038BDAB
:101DE0008021FFF7EDFE0246686458B1031F002111
:101DF0007C3043F8041F9842FBD1E0E7032038BD54
:101E0000022038BD4FF0FF3038BD4FF0FF30704733
:101E100038B5144B1F281D681FD86A6C044662B180
:101E200052F820304BB1012B15D0591C0FD0002592
:101E300042F820509847284638BD284600F09EF8C2
:101E4000224601462846BDE8384000F081B81623F6
:101E50002B60012038BD002038BD16232B604FF0C9
:101E6000FF3038BD00000020124B1F2870B51E68DF
:101E700008D80D46716C044649B151F8240041F868
:101E8000245070BD162333604FF0FF3070BD8021A9
:101E90003046FFF795FE0146706440B1031F00F124
:101EA0007C0C002243F8042F6345FBD1E5E74FF09B
:101EB000FF3070BD0000002038B50B4B1D686C6C06
:101EC0000CB1002038BD80212846FFF779FE6864F8
:101ED00038B1031F00F17C0243F8044F9342FBD159
:101EE000EFE74FF0FF3038BD0000002038B5174B4A
:101EF0001F281D6826D86A6C044682B152F8243027
:101F000002EB84024BB1591C1AD0012B16D00025CC
:101F1000204615609847284638BD012038BD8021ED
:101F20002846FFF74DFE0246686458B1031F0021A2
:101F30007C3043F8041F8342FBD1DFE7032038BD28
:101F4000022038BD4FF0FF3038BD00BF0000002038
:101F500070B50C46084D03460026204611461C4627
:101F60002E6003F07DFF431C00D070BD2B68002B5A
:101F7000FBD0236070BD00BF1401002003F06EBFD2
:101F800010B50C46B1F90E1000F0B6F8002803DBCE
:101F9000636D0344636510BDA38923F48053A3815B
:101FA00010BD00BF002070472DE9F0410C46B1F98B
:101FB0000C101F46CB05054616460BD421F4805164
:101FC000A1813B46B4F90E1032462846BDE8F041E7
:101FD00000F01EB8B4F90E100223002200F068F8D9
:101FE000B4F90C10EAE700BF10B50C46B1F90E10B9
:101FF00000F05EF8A389421C0EBF23F4805343F423
:1020000080536065A38110BDB1F90E1000F016B8C1
:1020100038B50C46084D8446114620461A46002322
:102020002B60644603F03AFF431C00D038BD2B6898
:10203000002BFBD0236038BD1401002038B5074DBC
:102040000022044608462A6003F036FF431C00D0F5
:1020500038BD2B68002BFBD0236038BD1401002055
:1020600070B50C46084D03460026204611461C4616
:102070002E6003F024FF431C00D070BD2B68002BA2
:10208000FBD0236070BD00BF1401002038B5074DA0
:102090000022044608462A6003F016FF431C00D0C5
:1020A00038BD2B68002BFBD0236038BD1401002005
:1020B00038B50C46084D8446114620461A46002382
:1020C0002B60644603F002FF431C00D038BD2B6830
:1020D000002BFBD0236038BD14010020704700BFE7
:1020E000704700BF51F8040C0028A0F10400BCBFE9
:1020F0000B58C018704700BF38B50C46084D8446D1
:10210000114620461A4600232B60644603F0B6FEB3
:10211000431C00D038BD2B68002BFBD0236038BD9A
:1021200014010020024B58221A604FF0FF30704714
:102130001401002001FB00F0032A0AD0C0F30A03B7
:1021400003F58063C00AB3F5006F00D3013080B29D
:102150007047B52101FB00F0C009EFE700B58646E6
:102160001046002307E01EF803C08CEA000C044A66
:1021700012F80C0001338B42F5DB5DF804FB00BF65
:1021800058010020F0B585B0064614461D46BDF83E
:1021900028200818C0F304408B19B4F5445F46D2D8
:1021A00003F07F03B2F5004F0CD05AB148F20101A1
:1021B0008A4207D048F202018A4203D048F2030162
:1021C0008A423AD1990041EA402C61461143090AFA
:1021D0008DF80C1002F0030040EA0C008DF80D00A1
:1021E000002C36D1B2F5004F2DD1730063F07E0381
:1021F0008DF80C300127002A41D082F400410329D8
:1022000064D8334B1B681B7D93B30022394603A867
:10221000FFF7A4FF024621462846FFF79FFF0090E4
:102220002B46224603A9384601F042F832E0294BFA
:10223000294AD5212948FEF707F8294B264AD621F5
:102240002648FEF701F8274B234AE8212348FDF7EB
:10225000FBFF1BB9B2F5004F06D03AB141F0400187
:102260008DF80C100227C6E70127C4E70127C2E753
:102270002B46224603A9384601F050F80AE02B46C7
:10228000224603A9384601F07BF8114B1B681B7DE1
:10229000022B01D005B0F0BD182EFBD0002239462C
:1022A00003A8FFF75BFF024621462846FFF756FFCB
:1022B00004460021182000F0DCF88442EAD0044BE8
:1022C0001B685B6A002BE5D09847E3E7FEE700BF99
:1022D0008C0000203461000810620008446100088E
:1022E0005C610008F461000810B582B04FF400444E
:1022F0000094FFF747FF02B010BD00B583B0002384
:1023000006E003F1080CEC440CF8042C120A01332B
:10231000032BF6DD01AB042289B2FFF7E5FF03B022
:102320005DF804FB08B5002211460248FFF7E5FFFF
:1023300008BD00BF0400070010B504460022114686
:102340000848FFF7DAFF002211464FF4E020FFF7BC
:10235000D4FF04B910BD4FF0E05200210248FFF74E
:10236000CCFFF7E7480007001400070000B583B072
:102370008DF80420120A8DF8052001AB022289B2E3
:10238000FFF7B2FF03B05DF804FB000010B5044690
:10239000012802D0052C07D010BD41F622020021F1
:1023A0000548FFF7E3FFF5E74FF40072002102480C
:1023B000FFF7DCFFF0E700BF0400110000B583B0B9
:1023C0008DF807200DF10703012289B2FFF78CFF7A
:1023D00003B05DF804FB10B582B000240094FFF751
:1023E000D1FE02B010BD00B583B001AB042289B2AA
:1023F000FFF7F1FF0020032307E003F108026A441E
:1024000012F8042C02EB0020013B002BF5DA03B09C
:102410005DF804FB38B504460A4D01220021284628
:10242000FFF7A4FF224600210748FFF79FFF022283
:1024300000212846FFF79AFF00210448FFF7D3FF49
:1024400038BD00BF08000B0004000B0010000B009B
:1024500000B583B001AB022289B2FFF7BCFF9DF843
:1024600005309DF8040000EB032080B203B05DF856
:1024700004FB00B583B00DF10703012289B2FFF719
:10248000AAFF9DF8070003B05DF804FB00B585B016
:102490008DF80820C2F3072C8DF809C0C2F3074C51
:1024A0008DF80AC0120E8DF80B208DF80C30C3F396
:1024B00007228DF80D20C3F307428DF80E201B0E66
:1024C0008DF80F3048F20303009302AB082289B263
:1024D000FFF758FE05B05DF804FB000008B50528BD
:1024E00002D0092808D008BD40236FF40052002113
:1024F0000648FFF7CBFFF6E74FF401536FF40052A5
:1025000000210248FFF7C2FFEDE700BF08000B0003
:1025100070B505460C46164E4FF008234FF0FF32BB
:1025200000213046FFF7B2FF4FF060134FF0FF324B
:1025300000213046FFF7AAFF052D09D00D4B4FF0C3
:10254000FF3200214FF4E020FFF7A0FF4CB970BD2F
:10255000094B4FF0FF3200214FF4E020FFF796FFC8
:10256000F4E7064A00210648FFF7C7FEEFE700BF81
:1025700048000700001C0002003C0002001101019D
:102580001400070008B5052802D0092808D008BDA6
:10259000074B4FF0FF3200210648FFF777FFF6E7C1
:1025A000054B4FF0FF3200210248FFF76FFFEEE7C7
:1025B000003C000204000700001C000200B585B0CA
:1025C0008DF80C20120A8DF80D208DF80E301B0AA4
:1025D0008DF80F3048F20203009303AB042289B256
:1025E000FFF7D0FD05B05DF804FB000008B54FF41F
:1025F000C0734FF6FF7200210648FFF7DFFF064B5E
:102600001B681B7A4FF6E07200210448FFF7D6FFE3
:1026100008BD00BF08000B008C0000201F00110047
:1026200000B585B08DF80C208DF80D3048F201030F
:10263000009303AB022289B2FFF7A4FD05B05DF859
:1026400004FB000010B5012817D002281FD0012379
:10265000FF2200211A48FFF7E3FF1A4C4FF4000352
:102660006FF4807200212046FFF710FF00237F22C5
:1026700002212046FFF7D4FF10BD0520FFF786FE9C
:102680000123FF2219460F48FFF7CAFFF4E703238F
:10269000FF2200210A48FFF7C3FF0A4C4FF4000352
:1026A0006FF4807200212046FFF7F0FE00237F22A6
:1026B00002212046FFF7B4FF0520FFF767FEDBE7A6
:1026C000040011000800110008B500210846FFF7BA
:1026D0008AFE08BD10B50446026800210948FFF7CC
:1026E0000CFE626800210848FFF707FEA26800217F
:1026F0000648FFF702FEE26800210548FFF7FDFDEE
:1027000010BD00BF0C000200100002001400020007
:102710001800020010B50446026800210948FFF7BE
:10272000ECFD626800210848FFF7E7FDA268002180
:102730000648FFF7E2FDE26800210548FFF7DDFDEE
:1027400010BD00BF1C000200200002002400020097
:102750002800020008B50123FF2200210148FFF7ED
:102760005FFF08BD040002002DE9F843052836D0BC
:10277000204C2546204E214FDFF8C880DFF8C89056
:102780001F4A00211F48FFF7B8FD4A4600211E4896
:10279000FFF7B3FD424600211C48FFF7AEFD3A4665
:1027A00000211B48FFF7A9FD324600211948FFF719
:1027B000A4FD2A4600211848FFF79FFD224600216C
:1027C0001648FFF79AFD164A00211648FFF795FDB7
:1027D000154A00211548FFF790FDBDE8F883144C19
:1027E000144D154E154FDFF86480DFF86490144ADD
:1027F000C7E700BFB5AF02007DAF02003EAF0200E9
:10280000FEA80200380003003C0003004000030063
:1028100044000300480003004C0003005000030084
:10282000400200101C00030089A46D1B200003005F
:10283000F5CF0100B5CF010036CF01007EC7010002
:10284000FDC00100FEA5020036AC0200BEC60100BC
:102850003EC4010038B5264C264A00212046FFF729
:102860004CFD1023FF2200212046FFF7D9FE002453
:1028700001E00134E4B2022C0AD8142000F014FD67
:1028800000211D48FFF7F5FD0128F2D1002300E0EB
:1028900001231BBB0025164C002211462046FFF7E2
:1028A0008DFD012200211448FFF788FD0123FF223E
:1028B00002212046FFF7B4FE00211048FFF793FDE8
:1028C0006FF0604398420CD000210D48FFF78BFD5C
:1028D0006FF06043984207D0284638BD4FF0FF356F
:1028E000D9E74FF0FF35EFE74FF0FF35F4E700BFD2
:1028F0000C00040001000200200004001400040089
:102900001C00040070B504460026012806D0FFF71D
:10291000A1FF0546012C10D0284670BD0A4D314656
:102920002846FFF795FD064640F205134FF6FF7265
:1029300000212846FFF742FEE9E700233246194608
:102940000148FFF73BFEE7E74800070008B50246ED
:1029500000214FF46020FFF709FD08BD08B50246CD
:1029600000210248FFF702FD08BD00BF040001007E
:102970001318B3F5806F20DA70B505460E4614467D
:102980007F2A08D80B46024621464FF4A010FFF7D5
:10299000ABFC002070BD142200210948FFF7ADFCFC
:1029A000224600210748FFF7A8FC33462A460021AB
:1029B0004FF4E810FFF798FCEBE74FF0FF3070475B
:1029C00004001F0008001F0008B57F2909D840EA4D
:1029D000014040EAC2230B4A00212420FFF756FDA4
:1029E00008BD803140EA014040EAC223054A002187
:1029F0002420FFF74BFD00214FF40020FFF739FDA5
:102A0000EEE700BF00F400FC08B5024601212820D3
:102A1000FFF7D4FC08BD00002DE9F8430446077811
:102A20000379182B04D8C378182B15D9012600E098
:102A30000126F6B2E379012B10D000216378013B27
:102A4000062B00F2F980DFE813F0FA00F700F70038
:102A50000B00F400F7000E000026EAE71021EDE776
:102A60004FF0200901E04FF04809B74B1B681A8A64
:102A700022F0E0021A82E2791A73657BAA1C012512
:102A800095401FFA85F84FEAC80207EE902AF8EE43
:102A9000677A9FEDAE7A67EE877AFDEEE77A17EEFA
:102AA000902A5A82227B5A75A37B120302F4304289
:102AB00042EA0342237A5B0103F0200313430B43F2
:102AC000A34A00211020FFF7E1FC002E40F0BA805D
:102AD000237BABB1A37B012B40F2D980607B042226
:102AE00010219C4B33F81000FFF724FB09EBC809B9
:102AF00000F07F034FF6807202219748FFF75EFDDA
:102B0000B9F1FF0F40F3CC808F4B1A68138A43F062
:102B1000200313824FF480636FF4C05200218F486A
:102B2000FFF7B4FCA378FC2200214FF4C020FFF78C
:102B300077FD6A1ED2B200214FF40030FFF73EFC51
:102B40006378072B00F0B5800020FFF75DFF237B43
:102B500003F00303032B00F0B080814A0021814879
:102B6000FFF7CBFB00218048FFF73DFC20F4FF532B
:102B700023F01F03092F00F0A6802279120202F42D
:102B8000F8521A43E378DB00DBB213436279520058
:102B900002F006021A4300217348FFF7AEFBA27948
:102BA00063781B0343EA82236FF4744200212420DC
:102BB000FFF76CFC63890BB9812363816289022171
:102BC0004FF4C020FFF7D2FB092F7FD0674A0021C6
:102BD0006748FFF792FB41F63C7200214FF410204A
:102BE000FFF7C4FB142201216248FFF7E7FB0E2226
:102BF00002216148FFF7E2FB812200215F48FFF7D5
:102C0000DDFB022200214420FFF7D8FB0120FFF763
:102C100019FD0025052D6BD8142000F045FB00217F
:102C20004420FFF726FC10F0020F7DD10135EDB2F4
:102C3000F0E74FF0800918E74FF4807915E74FF07F
:102C4000400912E7404B1A68138A43F0600313826D
:102C50004FF440636FF4C05200214048FFF716FC68
:102C600040F2063200214648FFF747FB002211469A
:102C70004FF00E10FFF741FB424A00213648FFF7A4
:102C80003CFB7D2200214048FFF798FB4AE7607B30
:102C9000032210212F4B33F81000FFF74BFA25E7E2
:102CA0004FF4A0536FF4C05200212C48FFF7EEFB05
:102CB00038E70820FFF7A8FE49E7344A00212948F1
:102CC000FFF71BFB4EE743F0010356E7304A0021B4
:102CD0002748FFF712FB40F63C7200214FF410200A
:102CE000FFF744FB2B4A00212B48FFF706FB79E74F
:102CF000012333BB2379093BDBB20F2B1AD8124BCC
:102D00001B685B7A012B11D03846FFF72DFD4FF47D
:102D1000C84348F2FF1200212048FFF74FFC012072
:102D2000FFF7F0FDBDE8F8830023E2E778B2FFF794
:102D3000D5FBECE70023FE2219461848FFF770FC8C
:102D4000EDE74FF0FF30EDE78C0000206666663F50
:102D5000CF4FFCFF2062000812000E0008000B009D
:102D60004C585FAF0C000600140001003411071C22
:102D70001C000700500007001800070008000900A9
:102D80000C000E000A5A0C0016000E00CC355FAF86
:102D90003400011C33A8B508100007001800030018
:102DA00070B506460D461446134B1B68DB7B032BA0
:102DB0000DD04FF490106319B3F5806F06DA7F2CB5
:102DC00008D833462A462146FFF705FB70BD4FF46D
:102DD0009810F0E7020C00210848FFF78EFA22460F
:102DE00000210748FFF789FA33462A4600214FF4AD
:102DF000E810FFF7F0FAE9E78C00002004001F005C
:102E000008001F0010B5044600210948FFF720FB09
:102E1000C0F30B0310F4006F01D043F470431BB2F6
:102E20002380044A1268B2F91200181A10BD00BFBC
:102E3000080002008C00002008B50346052200218E
:102E40007420FFF7C8FA08BD08B503460C4A12689B
:102E5000D27B012A08D0032A0CD1052204214FF489
:102E6000F010FFF7B8FA08BD052200210548FFF76A
:102E7000B2FAF8E7052200216420FFF7ACFAF2E786
:102E80008C0000200400180010B502280BD000238D
:102E9000FE2219461020FFF7C3FB00221146142022
:102EA000FFF764FA10BD0C460123FF220021102019
:102EB000FFF7B6FB224600211420FFF757FAF1E78F
:102EC00008B5024602210C20FFF750FA08BD08B5EC
:102ED000024600210C20FFF749FA08BD08B5FFF7AC
:102EE000F3FB064B984204D0103B984203D10020DC
:102EF00008BD0020FCE74FF0FF30F9E71203CADEFF
:102F0000F8B50446434B1B680022DA73022119828C
:102F10001A755A759A72DA729A62DA621A635A6389
:102F2000DA639A63FFF7DAFF00286FD106460420C0
:102F3000FFF770FA05460520FFF76CFA07460A20EE
:102F4000FFF768FA334B1A68C0F30440107215B1EA
:102F50000FB1002836D12020FFF75CFA2E4B9842A3
:102F600033D02C4B1B6800225A7214F0100F31D151
:102F700014F0200F35D114F0400F39D114F0800F28
:102F80003DD1244B1B68DA7A0AB98522DA729A7A23
:102F90000AB974229A721F20FFF73CFA1D4C23686D
:102FA00058731E20FFF736FA236800F07F009873ED
:102FB00008B92E229A739A7B00211848FFF7FEF970
:102FC0003046F8BDFFF712FBC5E7124B1B68012224
:102FD0005A72CAE70F4B1D680620FFF71BFA2860DC
:102FE000C6E70C4B1D680720FFF714FA6860C2E7BC
:102FF0000820FFF70FFA074B1B689872BEE70920FD
:10300000FFF708FA034B1B68D872BAE74FF0FF3698
:10301000D6E700BF8C000020400200101400090019
:1030200038B50446074D00212846FFF7DCF9000DAE
:103030000005C4F31302024300212846FFF75DF99F
:1030400038BD00BF0800010008B502214420FFF789
:10305000FFF9C0F3002008BD08B5024600212C206E
:10306000FFF74BF908BD000008B510F01D0F6DD03B
:1030700010F0010F1FD010F0020F15D000231A46D8
:1030800019460D20FFF730F903214420FFF7F1F92D
:1030900010F0080F51D100214148FFF7A4F9B0F515
:1030A000502F41D0002008BD00231A4619460320A6
:1030B000FFF71AF9E8E710F0080F10D010F0020F30
:1030C00006D000231A4619460F20FFF70DF9DBE75B
:1030D00000231A4619460720FFF706F9D4E710F037
:1030E000100F10D010F0020F06D000231A46194618
:1030F0000E20FFF7F9F8C7E700231A461946052006
:10310000FFF7F2F8C0E710F0020F06D000231A46CE
:1031100019461020FFF7E8F8B6E700231A461946CB
:103120000920FFF7E1F8AFE700231A4619461846D1
:10313000FFF7DAF84FF0FF30B5E700231A461946DB
:103140001846FFF7D1F84FF0FF30ACE710F0200F32
:1031500012D010F0020F07D000231A461946112092
:10316000FFF7C2F800209EE700231A4619460B20FD
:10317000FFF7BAF8002096E710F0020F07D00023FF
:103180001A4619460C20FFF7AFF800208BE7002302
:103190001A4619460120FFF7A7F8002083E700BF71
:1031A00030000F0008B568B1024600213420FFF757
:1031B000A4F84FF400734FF6FF7200211020FFF7C0
:1031C000FDF908BD00234FF6FF5219461020FFF706
:1031D000F5F9F6E738B505460C460120FFF7D6F8B5
:1031E00000212046FFF794F92046FFF7CBF9C5F3FD
:1031F0000B0200210F48FFF7B9F80323FF2200213B
:103200000D48FFF70DFA00210B48FFF732F910F0D7
:10321000010FF8D1FFF786F80020FFF78DF80520A1
:10322000FFF7B4F800210548FFF723F900F03F004D
:1032300038BD00BF1C000800100008001C0007007B
:1032400010B50446038953B9027800210B48FFF7F3
:10325000B5F8626800210A48FFF74FF810BD002159
:103260000848FFF706F910F0010F04D10521208965
:10327000FFF7B0FFEDE70921F9E700BF1C000700E9
:103280000C0001001400010010B500F0CBFB044657
:1032900008B9204610BD00F096FBFAE700B9704768
:1032A00008B500F097FB08BD08B500F065FB08BD48
:1032B0002DE9F8438146884617461E46FFF7E4FF8E
:1032C0000446154802F021F90128FAD10022102104
:1032D0004FF0904000F068FE0F4D0A234A464146E9
:1032E000284601F0C9FD0A233A463146284601F036
:1032F000C3FD0A23012208A9284601F0BDFD0122D1
:1033000010214FF0904000F04FFE2046FFF7C6FF1F
:103310000020BDE8F88300BFD80200202DE9F0416D
:1033200007460E4614469846FFF7AEFF054613487B
:1033300002F0EBF80128FAD1002210214FF0904062
:1033400000F032FE4FF0FF333A4631460B4801F0B1
:1033500093FD5CB9012210214FF0904000F024FE53
:103360002846FFF79BFF0020BDE8F0814FF0FF33B8
:1033700022464146014801F07FFDEBE7D8020020DC
:103380002DE9F84305460E4691469846FFF77CFF27
:103390000746144802F0B9F80128FAD1002210219A
:1033A0004FF0904000F000FE002407E04FF0FF33A4
:1033B000012231190B4801F05FFD0134A542F5DC13
:1033C00064234A464146074801F0CBFF0122102101
:1033D0004FF0904000F0E8FD3846FFF75FFF002017
:1033E000BDE8F883D802002010B5114C114B1B78B2
:1033F000A370802200214420FEF77FFF0022214697
:103400000C20FFF7B5FA012200210C20FFF7DCFAAF
:103410000220FFF729FE00214420FEF7E4FF10F010
:10342000800FF8D0802200214420FEF766FF10BDF7
:10343000D8000020B40200202DE9F04F85B0B0483C
:1034400000F028FA00F0F6FAFFF7FEFD0028FBD0A6
:103450000120FFF755FDB0F1FF3F32D0A948FFF73B
:10346000DBFA90BBA74B1B78052B32D0A648FFF7A1
:10347000E7FE02210846FFF707FD4DF6CA60FFF799
:103480001FFD44F25670FFF722FD44F28D00FFF756
:103490005DFA44F28D00FFF761FA40F2B130FFF7B8
:1034A000BFFD4FF49670FFF77DFE96494FF496707E
:1034B00000F028FB0020FDF731FCFDF73DFB002468
:1034C00067E1924800F0E6F9FEE7914800F0E2F982
:1034D000FEE79048FFF7B4FECBE78F4B04220021B4
:1034E0008E48FEF701FFFFF735F95EE18C49412276
:1034F0004A7101238B718B49CA710B728A494A71D7
:103500008B71FFF771FF00214420FEF76CFF874BA2
:103510001860874B0340002BF5D00DF10E00FFF72C
:1035200071FC844A137801331370804B1B6813F4C9
:10353000804F00F00D810028C0F20A814FF4DE4276
:1035400000214420FEF7D9FE00214C20FEF74BFF5E
:1035500000F07F01182900F2C280774D0022284632
:10356000FFF71EFC0023AB700A226E492846FCF7C9
:10357000DDFE002840F0A38000F0DBFA82460191D6
:1035800000F0F1FA074689466C4BC31841F100027E
:103590001D0A45EA02652846FFF75EFD4FF0000B65
:1035A0002E0226F4FF7626F001062D0E44F28D033E
:1035B000F61845F10005DFF870815246019B08F1CD
:1035C0000A0000F0EAFA3A464B4608F10E0000F015
:1035D000E4FA32462B4608F1120000F0DEFA554BB1
:1035E0001B7888F802305A4641461820FFF7C0F988
:1035F000012259461820FFF7E7F90120FFF734FDB3
:10360000002840F0B08000214420FEF7ECFE10F0CE
:10361000800FF8D0802200214420FEF76EFE454A3C
:1036200013780133137046490A780132454B83FB06
:10363000020303EB4303A2EB43030B7093E038490F
:1036400042224A7102238B713649CA710B72364984
:103650004A718B7155E7324943224A7103238B71BA
:103660003049CA710B7230494A718B7149E72C4954
:1036700044224A7104238B712A49CA710B722A4968
:103680004A718B713DE7264945224A7105238B71AA
:103690002449CA710B7224494A718B7131E7204960
:1036A00046224A7106238B711E49CA710B721E494C
:1036B0004A718B7125E7244800F0ECF821E7234A92
:1036C000936A013393621E490A7801321D4B83FBD2
:1036D000020303EB4303A2EB43030B7043E01B4ADB
:1036E00053690133536116490A780132154B83FB44
:1036F000020303EB4303A2EB43030B7033E000BF71
:10370000306200086400002080000020446200084D
:103710005862000874000020900000201C00020085
:10372000D8000020B4000020C0000020D0020020FB
:1037300000D02724B4020020B8020020AC411304BA
:10374000B0000020ABAAAA2A6C6200085802002030
:103750001F490A7801321F4B83FB020303EB43032B
:10376000A2EB43030B701C4A00214420FEF7C5FD69
:10377000FDF714FA194A82FB0032C317C3EB620348
:1037800003EB8303C31AD8B2154B1870013000F055
:103790000FF9002C7FF4A1AE1248FEF79BFF1248F0
:1037A000FEF7B8FFFEF7D6FF0124094B1B78052B67
:1037B00081D801A252F823F09F360008ED340008AA
:1037C0003F360008573600086F3600088736000875
:1037D000B0000020ABAAAA2A00FF2724676666660D
:1037E000B5020020A000002090000020014B024AFA
:1037F0001A607047D40200203934000870B588B0D0
:103800000024039404940594069407941F4B5A696A
:1038100042F480025A615A6902F480020092009ACE
:103820005A6942F400325A615A6902F40032019234
:10383000019A5A6942F480225A615B6903F4802339
:103840000293029B224610214FF0904000F0ACFB07
:103850000F4D22464FF44051284600F0A5FB10239F
:103860000393012604960594069403A94FF0904013
:1038700000F0B6FA4FF4405303930496059406946F
:1038800003A9284600F0ACFA08B070BD0010024051
:103890000004004838B50446FDF7D2F9064D0A2366
:1038A00082B22146284602F0D5F90A2302220349B2
:1038B000284602F0CFF938BD90030020846200084A
:1038C00072B6FEE700B59FB02822002114A8FCF7CD
:1038D0005FFD00210F9110911191129113913C22E3
:1038E0006846FCF755FD012314934FF4803215927E
:1038F0001693189302231B931C924FF4E0131D930D
:1039000014A800F06FFBC0B90F230F930221109190
:10391000002311934FF48062129213930FA800F0CA
:10392000ABFE60B90123009300230293684600F0C8
:10393000A9FF30B91FB05DF804FBFFF7C1FFFFF727
:10394000BFFFFFF7BDFF000008B5FFF74FFF00F016
:10395000B1F9FFF7B7FFFFF751FF00F02BF902F0C5
:10396000E5FA02F02FFB00F02EF8024B1B68984797
:10397000FEE700BFD402002080B485B000AF7860BD
:103980007A6813465B0013449B007B600023FB6056
:1039900003E000BFFB680133FB60FA687B689A4272
:1039A000F7D3002318461437BD465DF8047B7047F3
:1039B00080B582B000AF7860786800F09FF900BFF2
:1039C0000837BD4680BD80B500AF062000F05CF82A
:1039D00000BF80BD80B500AF062000F047F800BFF3
:1039E00080BD000080B483B000AF0346FB710C4A79
:1039F00097F907305B0952F82320FB7903F01F0386
:103A000022FA03F303F00103002B14BF0123002368
:103A1000DBB218460C37BD465DF8047B704700BF2B
:103A200000E100E080B500AF0620FFF7DBFF0346B2
:103A3000184680BD80B500AF00224FF400510A48FF
:103A400000F0B2FA062000F059F901224FF40051BB
:103A5000054800F0A9FA032000F050F90220FFF712
:103A6000A7FF00BF80BD00BF00040048002807DB9F
:103A700000F01F02400901239340024A42F820301F
:103A8000704700BF00E100E000280CDB00F01F02DF
:103A90004009012393402030034A42F82030BFF30D
:103AA0004F8FBFF36F8F704700E100E00F4B5B78E3
:103AB000023B0B2B07D8DFE803F00B1406060E06BB
:103AC000061711060608002070474FF4C0707047B3
:103AD0004FF4607070474FF4B06070474FF4F0607F
:103AE00070474FF478607047802070476400002072
:103AF000034B9B790BB100207047C820704700BF73
:103B00006400002038B504460D46FFF7F1FF044479
:103B1000FFF7CCFF204400F5FA706B7BDA1E032A16
:103B200004D80233082202FA03F31844FFF73AFBE1
:103B300038BD00B583B06846FFF77EF90423002046
:103B400001460BE0090241EA106103F108026A44F0
:103B500012F8082C42EA0020013B5BB2002BF1DA9C
:103B600003B05DF804FB00B583B06846FFF76CF95D
:103B70000423002001460BE0090241EA106103F131
:103B800008026A4412F8082C42EA0020013B5BB2AA
:103B9000002BF1DA03B05DF804FB002106E042548B
:103BA000120A42EA03621B0A0131C9B20329F6D99B
:103BB0007047000008B51048104B03604FF4827343
:103BC0004360002383604FF4E062C260036143619D
:103BD0004FF4007282611822C26103624362836201
:103BE0000722C26203630823436301F0D1F800B9DE
:103BF00008BDFFF765FEFBE7D8020020003001405A
:103C000000B589B0002303930493059306930793AB
:103C10000268144B9A4202D009B05DF804FB03F528
:103C200060439A6942F480529A619A6902F4805220
:103C30000192019A5A6942F400325A615B6903F4B5
:103C400000330293029BE023039302230493032394
:103C500006930523079303A94FF0904000F0C0F8A6
:103C6000DAE700BF0030014010B504460E4B18786B
:103C70004FF47A73B3FBF0F30C4A1068B0FBF3F027
:103C800000F09AF868B90F2C01D901200AE000224F
:103C900021464FF0FF3000F057F8054B1C60002024
:103CA00000E0012010BD00BFE4000020EC00002077
:103CB000E800002008B5074A136843F010031360BA
:103CC000032000F02FF80F20FFF7CEFF00F072F96D
:103CD000002008BD00200240034A1168034B1B78F6
:103CE0000B441360704700BF3C030020E400002039
:103CF000014B1868704700BF3C03002038B50446EC
:103D0000FFF7F6FF0546B4F1FF3F02D0044B1B78E6
:103D10001C44FFF7EDFF401BA042FAD338BD00BFA3
:103D2000E4000020074AD36823F4E0631B041B0C63
:103D3000000200F4E060034343F0BF6343F4003348
:103D4000D360704700ED00E000B5194BDB68C3F3AA
:103D50000223C3F1070CBCF1040F28BF4FF0040C81
:103D600003F1040EBEF1060F18D9033B4FF0FF3EDE
:103D70000EFA0CFC21EA0C0199400EFA03F322EA38
:103D80000303194300280BDB0901C9B200F16040AD
:103D900000F5614080F800135DF804FB0023E5E7BF
:103DA00000F00F000901C9B2024B1954F4E700BF3B
:103DB00000ED00E014ED00E00138B0F1807F0BD29F
:103DC0004FF0E0235861054AF02182F823100020CB
:103DD000986107221A6170470120704700ED00E0EA
:103DE000F0B583B0002362E085685E000324B44030
:103DF00025EA0405CC68B4402C438460446824EA76
:103E00000C0C4C68C4F300149C4044EA0C0444605D
:103E10005EE0DD08083550F8256003F007044FEA3E
:103E2000840C0F2404FA0CF426EA040E0C6904FA3C
:103E30000CF444EA0E0440F8254060E0042400E05D
:103E4000002404FA0EF42C430CF1020C524D45F8F8
:103E50002C40524CA568D44325EA02064F6817F45B
:103E6000801F01D042EA05064C4DAE60ED6804EAC1
:103E700005064F6817F4001F01D042EA0506474DBA
:103E8000EE606D6804EA05064F6817F4003F01D044
:103E900042EA0506414D6E602D682C404E6816F4CE
:103EA000803F01D042EA05043C4A146001330A68AD
:103EB00032FA03F46ED04FF0010C0CFA03FC1CEA4A
:103EC0000202F3D04C6804F00304013C012C8BD9AE
:103ED0004C6804F00304032C0CD0C4685D004FF060
:103EE000030C0CFA05FC24EA0C0C8C68AC4044EA88
:103EF0000C04C4604C6804F00304022C89D00468EC
:103F00004FEA430E4FF0030C0CFA0EFC24EA0C0CA3
:103F10004C6804F0030404FA0EF444EA0C04046050
:103F20004C6814F4403FC1D01D4CA56945F0010513
:103F3000A561A46904F001040194019C4FEA930C6B
:103F40000CF10205144C54F8255003F003044FEA19
:103F5000840E0F2404FA0EF425EA0405B0F1904F04
:103F60003FF46EAF0F4CA0420ED004F58064A04227
:103F70000CD004F58064A0420AD004F58064A0420D
:103F80003FF45CAF05245CE701245AE7022458E7BC
:103F9000032456E703B0F0BD0000014000040140D7
:103FA00000100240000400480AB18161704781623C
:103FB0007047000082B00A4B9A6942F001029A6190
:103FC0009A6902F001020092009ADA6942F0805286
:103FD000DA61DB6903F080530193019B02B0704703
:103FE00000100240002800F0018370B582B0044642
:103FF000036813F0010F3BD0B54B5B6803F00C0373
:10400000042B1ED0B24B5B6803F00C03082B13D0BB
:104010006368B3F5803F68D0002B40F0928003F1D5
:10402000804303F504331A6822F480321A601A6858
:1040300022F480221A605DE0A54B5B6813F4803F98
:10404000E6D04FF4003393FAA3F3A14B19684FF471
:10405000003393FAA3F3B3FA83F303F01F030122AF
:1040600002FA03F30B4203D06368002B00F0C08216
:10407000236813F0020F00F0C580954B5B6813F0C6
:104080000C0F00F09C80924B5B6803F00C03082B34
:1040900000F08F802369002B00F0F280012292FA59
:1040A000A2F3B3FA83F303F1845303F584139B0063
:1040B0001A60FFF71DFE0546022393FAA3F3844B13
:1040C0001968022393FAA3F3B3FA83F303F01F03EF
:1040D000012202FA03F30B4240F0C380FFF708FE0F
:1040E000401B0228E8D903208BE2794A136843F485
:1040F00080331360764AD36A23F00F03A1680B4321
:10410000D3626368002B36D0FFF7F2FD05464FF40B
:10411000003393FAA3F36E4B19684FF4003393FA0C
:10412000A3F3B3FA83F303F01F03012202FA03F3AC
:104130000B429DD1FFF7DCFD401B6428E7D903202B
:104140005FE2B3F5A02F09D0614B1A6822F48032E8
:104150001A601A6822F480221A60CBE703F18043C8
:10416000A3F53C331A6842F480221A601A6842F4BC
:1041700080321A60BEE7FFF7BBFD05464FF40033FF
:1041800093FAA3F3524B19684FF4003393FAA3F355
:10419000B3FA83F303F01F03012202FA03F30B4285
:1041A0003FF466AFFFF7A4FD401B6428E6D9032067
:1041B00027E2474B5B6813F4803F7FF46BAF022329
:1041C00093FAA3F3424B1968022393FAA3F3B3FAC9
:1041D00083F303F01F03012202FA03F30B4203D01F
:1041E0002369934240F006823948036823F0F803BC
:1041F0006169F82292FAA2F2B2FA82F201FA02F2AC
:1042000013430360236813F0080F00F08D80A36947
:10421000002B61D0012191FAA1F2B2FA82F22D4B6A
:1042200013449B001960FFF763FD0546022393FAD0
:10423000A3F293FAA3F293FAA3F2254A516A93FAEE
:10424000A3F3B3FA83F303F01F03012202FA03F38B
:104250000B4269D1FFF74CFD401B0228E6D9032031
:10426000CFE11B48036823F0F8036169F82292FA52
:10427000A2F2B2FA82F201FA02F213430360C1E73A
:10428000012393FAA3F3B3FA83F303F1845303F501
:1042900084139B0000221A60FFF72AFD05460223C3
:1042A00093FAA3F30A4B1968022393FAA3F3B3FA20
:1042B00083F303F01F03012202FA03F30B42A1D0A0
:1042C000FFF716FD401B0228E9D9032099E100BF42
:1042D0000010024020819010012292FAA2F2B2FA5C
:1042E00082F2B74B13449B0000221A60FFF700FDD7
:1042F0000546022393FAA3F293FAA3F293FAA3F2E8
:10430000B04A516A93FAA3F3B3FA83F303F01F039D
:10431000012202FA03F30B4206D0FFF7E9FC401B2F
:104320000228E6D903206CE1236813F0040F00F0A3
:10433000A980A44BDB6913F0805F20D1A14BDA691F
:1043400042F08052DA61DB6903F080530193019BF4
:1043500001259D4B1B6813F4807F12D0E368012B6D
:1043600023D073BB03F1804303F504331A6A22F0B0
:1043700001021A621A6A22F004021A621AE0002587
:10438000E7E7914A136843F480731360FFF7B0FCCA
:1043900006468D4B1B6813F4807FDFD1FFF7A8FC26
:1043A000801B6428F5D903202BE1864A136A43F069
:1043B00001031362E368002B3CD0FFF799FC06462B
:1043C0002BE0052B09D07F4B1A6A22F001021A62FA
:1043D0001A6A22F004021A62ECE77A4B1A6A42F077
:1043E00004021A621A6A42F001021A62E2E7754B8D
:1043F000196A022393FAA3F3B3FA83F303F01F03BA
:10440000012202FA03F319423BD1FFF771FC801B32
:1044100041F28833984200F2EF80022393FAA3F22C
:1044200093FAA3F3002BE2D1022393FAA3F3654B93
:10443000596ADEE7FFF75CFC064615E0614B196A36
:10444000022393FAA3F3B3FA83F303F01F030122C9
:1044500002FA03F3194214D0FFF74AFC801B41F221
:104460008833984200F2CA80022393FAA3F293FAA7
:10447000A3F3002BE2D1022393FAA3F3514B596A21
:10448000DEE7B5BBE369002B00F0BA804D4A526805
:1044900002F00C02082A00F09980022B2FD04FF076
:1044A000807393FAA3F3B3FA83F303F1845303F510
:1044B00084139B0000221A60FFF71AFC04464FF099
:1044C000007393FAA3F33F4B19684FF0007393FA0C
:1044D000A3F3B3FA83F303F01F03012202FA03F3F9
:1044E00019426BD0FFF704FC001B0228E7D9032018
:1044F00087E0344AD36923F08053D361C2E74FF099
:10450000807393FAA3F3B3FA83F303F1845303F5AF
:1045100084139B0000221A60FFF7EAFB05464FF068
:10452000007393FAA3F3274B19684FF0007393FAC3
:10453000A3F3B3FA83F303F01F03012202FA03F398
:10454000194206D0FFF7D4FB401B0228E7D903200D
:1045500057E01C494B6823F47413626A206A0243D3
:1045600013434B604FF0807393FAA3F3B3FA83F3D2
:1045700003F1845303F584139B0001221A60FFF7B3
:10458000B7FB04464FF0007393FAA3F30D4B196881
:104590004FF0007393FAA3F3B3FA83F303F01F030E
:1045A000012202FA03F3194206D1FFF7A1FB001B17
:1045B0000228E7D9032024E0002022E0002020E0A8
:1045C000208190100010024000700040012B1AD092
:1045D000104B5B6803F48031226A914215D103F4D9
:1045E0007013626A934212D100200AE001207047E2
:1045F000012006E0012004E0032002E0032000E0A7
:10460000002002B070BD0120FBE70120F9E7012086
:10461000F7E700BF00100240114B5A6802F00C038C
:10462000042B18D0082B18D1C2F383430D49C85C62
:104630000B4BDB6A03F00F030B49C95C12F4803F9C
:1046400005D00A4BB3FBF1F303FB00F07047084BB6
:1046500003FB00F07047054870470648704700BFED
:104660000010024088620008986200080024F400EC
:1046700000093D0000127A00002800F0BE8070B5ED
:104680000D460446614B1B6803F007038B420BD2B7
:104690005E4A136823F007030B431360136803F0AB
:1046A00007038B4240F0AB80236813F0020F06D063
:1046B000574A536823F0F003A1680B435360236803
:1046C00013F0010F5AD06368012B2DD0022B40D07C
:1046D000022292FAA2F24E4A1068022292FAA2F242
:1046E000B2FA82F202F01F02012101FA02F2104234
:1046F00000F0878046494A6822F0030213434B606A
:10470000FFF7F6FA0646424B5B6803F00C0362685B
:10471000B3EB820F32D0FFF7EBFA801B41F2883304
:104720009842F0D9032067E04FF4003292FAA2F2E7
:10473000374A10684FF4003292FAA2F2B2FA82F2CB
:1047400002F01F02012101FA02F20242D2D101203D
:1047500052E04FF0007292FAA2F22D4A10684FF028
:10476000007292FAA2F2B2FA82F202F01F02012162
:1047700001FA02F21042BDD101203DE0234B1B683B
:1047800003F00703AB420AD9204A136823F007035A
:104790002B431360136803F00703AB4233D1236844
:1047A00013F0040F06D01A4A536823F4E063E1685B
:1047B0000B435360236813F0080F07D0144A536863
:1047C00023F46053216943EAC1035360FFF724FFD8
:1047D0000F4B5B6803F0F003F02292FAA2F2B2FAF8
:1047E00082F2D3400B4AD35CD8400B4B18600B4B82
:1047F0001868FFF739FA002070BD012070470120CA
:10480000FAE70120F8E70120F6E700BF00200240A8
:1048100000100240A8620008EC000020E800002020
:10482000014B1868704700BFEC00002008B5FFF787
:10483000F7FF074B5B6803F4E0634FF4E06292FA22
:10484000A2F2B2FA82F2D340024AD35CD84008BD49
:1048500000100240B862000808B5FFF7E1FF074BFF
:104860005B6803F460534FF4605292FAA2F2B2FA1A
:1048700082F2D340024AD35CD84008BD0010024007
:10488000B8620008F0B583B00446036813F4803FB3
:1048900048D0914BDB6913F0805F40F0D4808E4BA1
:1048A000DA6942F08052DA61DB6903F080530193E8
:1048B000019B0125894B1B6813F4807F00F0C580A4
:1048C000854B1B6A13F4407322D0626802F4407275
:1048D0009A421DD08048016A21F440764FF480331B
:1048E00093FAA3F2B2FA82F27D4F3A4492004FF06B
:1048F000010CC2F800C093FAA3F3B3FA83F33B446C
:104900009B0000221A60066211F0010F40F0B28095
:10491000714A136A23F4407361680B431362002DDC
:1049200040F0CF80236813F0010F06D06A4A136B62
:1049300023F00303A1680B431363236813F0020FF2
:1049400006D0654A136B23F44033E1680B431363CD
:10495000236813F0040F06D05F4A136B23F440233F
:1049600021690B431363236813F0200F06D05A4AC2
:10497000136B23F01003E1690B431363236813F4F3
:10498000003F06D0544A536823F48003A16B0B43C5
:104990005360236813F0400F06D04F4A136B23F087
:1049A0002003216A0B431363236813F0080F06D01A
:1049B000494A136B23F4401361690B431363236863
:1049C00013F0100F06D0444A136B23F44003A1697F
:1049D0000B431363236813F4007F06D03E4A5368E9
:1049E00023F40003E16A0B435360236813F0800F44
:1049F00006D0394AD36A23F4F873616A0B43D36251
:104A0000236813F4807F06D0334AD36A23F47853A3
:104A1000A16A0B43D362236813F4805F06D02E4A49
:104A2000136B23F48073216B0B431363236813F41C
:104A3000005F4DD0284A136B23F40073616B0B4366
:104A40001363002045E0002534E7244A136843F44B
:104A500080731360FFF74CF90646204B1B6813F474
:104A6000807F7FF42DAFFFF743F9801B6428F4D9D2
:104A700003202EE0FFF73CF9064615E0164B196AB5
:104A8000022393FAA3F3B3FA83F303F01F03012283
:104A900002FA03F30B427FF43BAFFFF729F9801BC7
:104AA00041F28833984211D8022393FAA3F293FA81
:104AB000A3F3002BE2D1022393FAA3F3064B596A26
:104AC000DEE7D36923F08053D3612BE7032000E0B6
:104AD000002003B0F0BD00BF001002400070004095
:104AE000008190102DE9F04782B0054688461746B0
:104AF0001E46FFF7FDF80A9B1B1A03EB0609FFF79A
:104B0000F7F882462B4B1B68C3F3CB3309FB03F347
:104B100001932B689C6838EA04030CBF4FF0010C2A
:104B20004FF0000CBC4540D0B6F1FF3FF1D0FFF78D
:104B3000DFF8A0EB0A0048450AD2B9F1000F07D010
:104B4000019A02B14A46019B013B01939146E0E77D
:104B50002A68536823F0E00353606B68B3F5827FE3
:104B60000BD0AB6AB3F5005F14D0012385F85D303C
:104B7000002385F85C30032018E0AB68B3F5004FE4
:104B800002D0B3F5806FECD12A68136823F040039C
:104B90001360E6E72A68136823F4005313602A6859
:104BA000136843F400531360DFE7002002B0BDE850
:104BB000F08700BFEC0000202DE9F04782B00646E8
:104BC0000C4615461F4600238DF80330FFF790F87A
:104BD0000A9B1B1A03EB0708FFF78AF88146D6F8F1
:104BE00000A0314B1B6803EB8303C3EBC3031B0D16
:104BF00008FB03F3019302E0B7F1FF3F12D13368E2
:104C00009B6803EA040CAC454AD0B4F5C06FF3D1FD
:104C1000002DF1D19AF80C30DBB28DF803309DF8FD
:104C20000330E9E7FFF764F8A0EB090040450AD23A
:104C3000B8F1000F07D0019A02B14246019B013B37
:104C400001939046DBE73268536823F0E00353603A
:104C50007368B3F5827F0BD0B36AB3F5005F14D0ED
:104C6000012386F85D30002386F85C30032018E0CD
:104C7000B368B3F5004F02D0B3F5806FECD1326862
:104C8000136823F040031360E6E73268136823F4E7
:104C9000005313603268136843F400531360DFE776
:104CA000002002B0BDE8F087EC00002070B582B0B3
:104CB00004460D46164600920B4600224FF4C051A2
:104CC000FFF77AFFB0B900962B46002280212046DC
:104CD000FFF708FFA8B900962B4600224FF4C061E9
:104CE0002046FFF769FF50B1236E43F0200323668F
:104CF000032004E0236E43F020032366032002B068
:104D000070BD236E43F0200323660320F7E770B5E0
:104D100082B004460D4616464368B3F5827F0DD037
:104D200000962B46002280212046FFF7DBFE90B93B
:104D30006368B3F5827F14D002B070BD8368B3F5A9
:104D4000004F02D0B3F5806FEAD12268136823F0D8
:104D500040031360E4E7236E43F02003236603203F
:104D6000EAE7A368B3F5004F02D0B3F5806FE3D153
:104D700000962B4600224FF4C0612046FFF71CFF2F
:104D80000028D9D0236E43F0200323660320D3E705
:104D900000286FD010B50446436A33B94368B3F5B1
:104DA000827F05D00023C36102E0002303614361D9
:104DB0000023A36294F85D30002B52D0022384F8C4
:104DC0005D302268136823F040031360E368B3F595
:104DD000E06F4CD90022B3F5706F04D0B3F5E06FEB
:104DE00001D00023A362636803F48273A16801F415
:104DF00004410B43216901F002010B43616901F099
:104E000001010B43A16901F400710B43E16901F059
:104E100038010B43216A01F080010B43A16A01F4C0
:104E2000005120680B430360638B03F00403616A45
:104E300001F010010B43616B01F008010B43E168C5
:104E400001F470610B43216813434B602268D369FE
:104E500023F40063D36100202066012384F85D30D1
:104E600010BD84F85C302046FEF7CAFEA6E74FF47A
:104E70008052B0E7012070472DE9F04383B01D4612
:104E800090F85C30012B00F0F4800446884691468F
:104E9000012380F85C30FEF72BFF074694F85D6035
:104EA000F6B2012E40F0DD80B8F1000F00F0DA809C
:104EB000B9F1000F00F0D680032384F85D300023A1
:104EC0002366C4F83880A4F83C90A4F83E9023648C
:104ED000A4F84430A4F846302365E364A368B3F52E
:104EE000004F1ED023681A6812F0400F03D11A68D1
:104EF00042F040021A60E368B3F5E06F44D963689A
:104F000013B1B9F1010F20D1A26B23681288DA60C6
:104F1000A36B0233A363E38F9BB2013B9BB2E38796
:104F200013E02268136823F04003136022681368BB
:104F300043F480431360D5E7FEF7DAFEC01BA842B6
:104F400002D3B5F1FF3F1AD1CDB1E38F9BB2002B55
:104F50006FD023689A6812F0020FEDD0A26B12880E
:104F6000DA60A36B0233A363B4F83EC01FFA8CFC73
:104F70000CF1FF3C1FFA8CFCA4F83EC0E5E70123CE
:104F800084F85D3003266DE0636813B1B9F1010F59
:104F900032D1E38F9BB2012B0CD9A26B236812880C
:104FA000DA60A36B0233A363E38F9BB2023B9BB235
:104FB000E38721E0A26B236812781A73A36B013395
:104FC000A363E38F9BB2013B9BB2E38714E0A36B27
:104FD0001B781373A36B0133A363E38F9BB2013B75
:104FE0009BB2E38708E0FEF783FEC01BA84202D312
:104FF000B5F1FF3F18D1BDB1E38F9BB2CBB12268B1
:10500000936813F0020FEED0E38F9BB2012BDED931
:10501000A36B1B88D360A36B0233A363E38F9BB2A4
:10502000023B9BB2E387E7E7012384F85D30032668
:1050300018E03A4629462046FFF738FE08B12023FB
:105040002366A36833B901932368DA6801929B68E9
:105050000193019B236E2BB9012384F85D30002658
:1050600000E00226002384F85C30304603B0BDE83F
:10507000F0830226F9E72DE9F8431F46089D90F8D2
:105080005C30012B00F06B81044688469146012379
:1050900080F85C30FEF72CFE064694F85D30DBB2FB
:1050A0006268012B0AD0B2F5827F40F04681A26887
:1050B000002A40F04881042B40F04781B8F1000FEE
:1050C00000F04581B9F1000F00F04381002F00F09E
:1050D000428194F85D30DBB2042B02D0052384F8C2
:1050E0005D3000232366C4F84090A4F84670A4F80D
:1050F0004470C4F83880E787A787E3642365E368D2
:10510000B3F5E06F01D8012F23D92268536823F447
:105110008053536023681A6812F0400F03D11A6855
:1051200042F040021A60E368B3F5E06F5CD963684F
:105130000BB1012F0BD1A26B23681288DA60A36B2D
:105140000233A363E38F9BB2013B9BB2E38701274A
:1051500030E02268536843F480535360DAE7A26B6F
:105160001288DA60A36B0233A363E38F9BB2013B27
:105170009BB2E387002723689A6812F0010F11D0D1
:10518000B4F8462092B26AB1DA68236C1A80236CB4
:1051900002332364B4F846309BB2013B9BB2A4F8BF
:1051A00046300127FEF7A4FD831BAB4202D3B5F1C5
:1051B000FF3F14D1E38F9BB22BB9B4F846309BB2BA
:1051C000002B00F0AB8023689A6812F0020FD2D057
:1051D000E28F92B2002ACED0002FCCD0BFE70123BD
:1051E00084F85D300320A9E063680BB1012F0FD173
:1051F000E38F9BB2012B0DD9A26B23681288DA6072
:10520000A36B0233A363E38F9BB2023B9BB2E387A2
:10521000012749E0A26B236812781A73A36B01334C
:10522000A363E38F9BB2013B9BB2E387F0E7E28F7E
:1052300092B2012A0CD9A26B1288DA60A36B0233F6
:10524000A363E38F9BB2023B9BB2E38700273DE061
:10525000A26B12781A73A36B0133A363E38F9BB223
:10526000013B9BB2E387002730E02268536843F498
:105270008053536001270DE0226C1B7B1370236C5D
:1052800001332364B4F846309BB2013B9BB2A4F8CF
:1052900046300127FEF72CFD801BA84202D3B5F152
:1052A000FF3F36D1002D34D0E38F9BB223B9B4F841
:1052B00046309BB2002B31D023689A6812F0020F5F
:1052C00004D0E28F92B20AB1002FB0D123689A685D
:1052D00012F0010FDED0B4F8462092B2002AD9D0E5
:1052E000B4F8462092B2012AC6D9DA68236C1A8033
:1052F000236C02332364B4F846309BB2023B9BB26A
:10530000A4F84630B4F846309BB2012BADD9012742
:10531000C0E7012384F85D3003200FE032462946C0
:105320002046FFF7C3FC10B1202323660120236E23
:105330009BB9012384F85D3000E00220002384F84B
:105340005C30BDE8F8830220F8E70220F6E7012090
:10535000F4E70120F2E70120F0E70120EEE7022068
:10536000EFE72DE9F04383B0044690F85D60F6B2B4
:10537000012E40F0C080884691461D464368B3F533
:10538000827F3DD094F85C30012B00F0BC8001237B
:1053900084F85C30FEF7ACFC0746B8F1000F00F073
:1053A000AB80B9F1000F00F0A780042384F85D30D2
:1053B00000232366C4F84080A4F84490A4F84690E3
:1053C000A363A387E387E3642365E368B3F5E06F32
:1053D00023D92268536823F480535360A368B3F53C
:1053E000004F20D023681A6812F0400F03D11A68CA
:1053F00042F040021A60E368B3F5E06F27D94CE051
:105400008368002BBED1042380F85D3000951346DD
:105410000A46FFF730FE064671E02268536843F4FF
:1054200080535360DAE72268136823F04003136067
:105430002268136823F480431360D3E7FEF758FC17
:10544000C01BA84202D3B5F1FF3F18D1BDB1B4F8DB
:1054500046309BB2002B3FD023689A6812F0010FB0
:10546000ECD0226C1B7B1370236C01332364B4F8E3
:1054700046309BB2013B9BB2A4F84630E7E70123DC
:1054800084F85D30032637E0FEF732FCC01BA842EB
:1054900002D3B5F1FF3F1AD1CDB1B4F846309BB27B
:1054A000D3B123689A6812F0010FEDD0DA68236C4B
:1054B0001A80236C02332364B4F846C01FFA8CFCB4
:1054C0000CF1FF3C1FFA8CFCA4F846C0E5E7012371
:1054D00084F85D3003260FE03A4629462046FFF760
:1054E00016FC08B120232366236E2BB9012384F810
:1054F0005D30002600E00226002384F85C30304650
:1055000003B0BDE8F0830226F9E790F85D0070472C
:1055100010B4036A046A24F001040462846924F06C
:10552000F00C4CEA021223F00A030B43826103627F
:105530005DF8044B704710B4036A046A24F0100449
:105540000462846924F4704C4CEA023223F0A00314
:1055500043EA0113826103625DF8044B704783687C
:1055600023F070030B4343F0070383607047000090
:105570000368304A90420ED0B0F1804F0BD0A2F5B4
:105580009432904207D002F58062904203D002F537
:105590009632904203D123F070034A681343254AA0
:1055A00090421AD0B0F1804F17D0A2F594329042B9
:1055B00013D002F5806290420FD002F596329042ED
:1055C0000BD002F54062904207D002F58062904213
:1055D00003D002F58062904203D123F44073CA687D
:1055E000134323F080034A69134303608B68C3624B
:1055F0000B6883620F4B98420FD003F5006398420B
:105600000BD003F54063984207D003F580639842BE
:1056100003D003F58063984201D10B690363012332
:105620004361036913F0010F03D0036923F0010301
:1056300003617047002C014060B310B5044690F838
:105640003D3013B3022384F83D30214651F8040B5A
:10565000FFF78EFF012384F8483084F83E3084F849
:105660003F3084F8403084F8413084F8423084F888
:10567000433084F8443084F8453084F8463084F868
:10568000473084F83D30002010BD80F83C3000F0F9
:1056900085FCD7E70120704710B4846824F47F4C60
:1056A00042EA03220A4342EA0C0282605DF8044B9C
:1056B0007047000090F83C30012B76D010B50446BE
:1056C000012380F83C30022380F83D300268906866
:1056D000374B034093600B68602B4CD029D8402B8C
:1056E00054D00CD9502B22D1CA6849682068FFF7E2
:1056F0000FFF50212068FFF732FF002005E0202B2C
:105700000DD009D9302B0AD00120012384F83D3077
:10571000002384F83C3010BD0BB1102B05D1194685
:105720002068FFF71CFF0020EFE70120EDE70120D4
:10573000EBE7B3F5805F34D0B3F5005F0CD1CB68F5
:105740004A6889682068FFF7A7FF2268936843F4D6
:10575000804393600020D8E7702B24D1CB684A683F
:1057600089682068FFF798FF2268936843F0770301
:1057700093600020C9E7CA6849682068FFF7DBFE2C
:1057800060212068FFF7EBFE0020BEE7CA68496889
:105790002068FFF7BDFE40212068FFF7E0FE0020F3
:1057A000B3E70020B1E70120AFE70220704700BF58
:1057B0008800FEFF90F83C30012B3ED030B401232E
:1057C00080F83C30022380F83D30026853689468CA
:1057D0001B4DAA4203D005F50065AA4203D123F46C
:1057E00070034D682B4323F070030D682B43536007
:1057F0000368134A934212D0B3F1804F0FD0A2F541
:10580000943293420BD002F58062934207D002F5A6
:105810009632934203D002F54062934204D124F0C1
:1058200080048A6814439C60012380F83D30002383
:1058300080F83C30184630BC70470220704700BFEB
:10584000002C0140026852E8003F23F4907342E8C4
:1058500000310029F6D1026802F1080353E8003F45
:1058600023F00103083242E800310029F3D1036E2E
:10587000012B06D02023C0F8803000230366836606
:105880007047026852E8003F23F0100342E80031FD
:105890000029F6D1EEE7000010B5044683680269DE
:1058A000134342691343C2691A4301680B6823F426
:1058B000164323F00C0313430B600268536823F470
:1058C0004053C1680B4353608269036A1A430168FD
:1058D0008B6823F4306313438B6003687B4A9342E5
:1058E0000DD07B4A93421CD07A4A93423AD07A4AEE
:1058F00093424AD0794A93425AD010231FE0784B02
:105900001B6B03F00303032B09D8DFE803F0020449
:105910000664012313E0042311E008230FE01023A1
:105920000DE06F4B1B6B03F44033B3F5003F54D0D5
:1059300013D8002B53D0B3F5803F52D10423E06934
:10594000B0F5004F69D0082B00F2B980DFE803F012
:1059500092A890B7ABB7B7B7AE00B3F5403F42D10E
:105960000223ECE75E4B1B6B03F44023B3F5002FDF
:105970003BD005D8DBB3B3F5802F3AD10423DEE763
:10598000B3F5402F37D10223D9E7554B1B6B03F4F6
:105990004013B3F5001F30D005D883B3B3F5801F93
:1059A0002FD10423CBE7B3F5401F2CD10223C6E748
:1059B0004B4B1B6B03F44003B3F5000F25D005D808
:1059C0002BB3B3F5800F24D10423B8E7B3F5400F10
:1059D00021D10223B3E70223B1E70823AFE7002375
:1059E000ADE71023ABE71023A9E70823A7E70023BF
:1059F000A5E71023A3E71023A1E708239FE70023CF
:105A00009DE710239BE7102399E7082397E70023DE
:105A100095E7102393E7102391E7082B49D8DFE897
:105A200003F0051F2548224848480900FEF7FEFEFE
:105A3000002840D06268530803EB4000B0FBF2F04E
:105A4000A0F110024FF6EF739A4236D883B223F0DA
:105A50000F03C0F3420018432368D86000201BE006
:105A6000FEF7FAFEE4E7FEF7D7FDE1E71D48E1E7C0
:105A70001C4802E0FEF7DAFE18B3636800EB53003F
:105A8000B0FBF3F0A0F110024FF6EF739A421AD870
:105A9000236880B2D86000200023A366E36610BDAF
:105AA000FEF7DAFEE8E7FEF7B7FDE5E74FF4004062
:105AB000E3E70120F0E70020EEE70120ECE701201A
:105AC000EAE70020E8E70120E6E700BF00380140F0
:105AD0000044004000480040004C0040005000409E
:105AE0000010024000127A00436A13F0080F06D03B
:105AF0000268536823F40043416B0B435360436ACD
:105B000013F0010F06D00268536823F40033816A52
